:020000040800F2
:1000000068070020890100082B1500080513000867
:10001000291500088F0200080D1B000800000000D1
:10002000000000000000000000000000C1180008EF
:1000300091020008000000002D150008C3180008F8
:10004000A3010008A3010008A3010008A301000800
:10005000A3010008A3010008A3010008A3010008F0
:10006000A3010008A3010008A3010008A3010008E0
:10007000A3010008A3010008A3010008A3010008D0
:10008000A3010008A3010008A3010008A3010008C0
:10009000A3010008A3010008A3010008A3010008B0
:1000A000A3010008A3010008A3010008A3010008A0
:1000B000A3010008A3010008A3010008A301000890
:1000C000A3010008A3010008A3010008A301000880
:1000D000A3010008011B0008A3010008A3010008F8
:1000E000A3010008A3010008A301000800F002F822
:1000F00000F03AF80AA090E8000C82448344AAF188
:100100000107DA4501D100F02FF8AFF2090EBAE885
:100110000F0013F0010F18BFFB1A43F0010318473B
:10012000E41A0000041B0000103A24BF78C878C10C
:10013000FAD8520724BF30C830C144BF04680C60ED
:10014000704700000023002400250026103A28BF35
:1001500078C1FBD8520728BF30C148BF0B60704739
:100160001FB51FBD10B510BD00F058F81146FFF7C0
:10017000F7FF01F0DDFC00F076F803B4FFF7F2FFC3
:1001800003BC00F07DF8000009488047094800479B
:10019000FEE7FEE7FEE7FEE7FEE7FEE7FEE7FEE737
:1001A000FEE7FEE704480549054A064B7047000094
:1001B00025190008ED0000086801002068070020EC
:1001C00068030020680300204FF0000200B51346CA
:1001D00094469646203922BFA0E80C50A0E80C5067
:1001E000B1F12001BFF4F7AF090728BFA0E80C5018
:1001F00048BF0CC05DF804EB890028BF40F8042B11
:1002000008BF704748BF20F8022B11F0804F18BF7D
:1002100000F8012B7047704770477047754600F033
:100220002BF8AE4605006946534620F00700854688
:1002300018B020B5FFF7B6FFBDE820404FF000062C
:100240004FF000074FF000084FF0000B21F00701BE
:10025000AC46ACE8C009ACE8C009ACE8C009ACE801
:10026000C0098D46704710B50446AFF300802046A4
:10027000BDE81040FFF781BF00487047080100202B
:1002800001491820ABBEFEE7260002007047FEE7DA
:10029000704772B6FEE710B590F8211000220229CF
:1002A00005D00421816380F82020012010BD016861
:1002B0000B6823F00E030B6001680B6823F0010349
:1002C0000B6090F84030C46B012101FA03F36360C6
:1002D00080F8211080F82020104610BD10B590F84D
:1002E00021100024022903D00421816301243DE070
:1002F00001680A6822F00E020A6001680A6822F0AA
:1003000001020A601A4A0168914201D1012121E0EB
:10031000174A1432914201D110211BE0144A2832AD
:10032000914201D1891515E0114A3C32914201D127
:1003300089140FE00E4A5032914202D14FF48031BD
:1003400008E00B4A6432914202D14FF4801101E07F
:100350004FF08071064A083A5160012180F821105F
:10036000002180F82010416B01B18847204610BD64
:100370000800024070B5044600F090F90546601C84
:1003800002D004480078044400F088F9401BA042E1
:10039000FAD370BD000000202DE9F04300233E4F4A
:1003A0000F2573E001229A400A406DD023F0030428
:1003B000E619D6F808809C074FEA147C05FA0CF978
:1003C00009EA0804DFF8D480404502D14FF0000864
:1003D00016E0DFF8CC80404502D14FF001080FE075
:1003E000DFF8C080404502D14FF0020808E0DFF896
:1003F000B880404502D14FF0030801E04FF00408F7
:1004000008FA0CF8A04522D1284CD4F800C02CEAF8
:10041000020CC4F800C0241DD4F800C02CEA020C61
:10042000C4F800C0214C0C34D4F800C02CEA020CF3
:10043000C4F800C0241FD4F800C02CEA020CC4F891
:1004400000C0D6F808C02CEA090CC6F808C0FF2A7C
:1004500001D8064601E000F104064FEA830401D901
:10046000A4F12004D6F800C005FA04F82CEA080C20
:100470004FF0040808FA04F84CEA080CC6F800C06B
:10048000C46824EA0204C46003F1010331FA03F2F0
:1004900088D1BDE8F0830000000001400008014061
:1004A000000C014000100140001401400004014014
:1004B0002DE9F84FDFF8B8910024A9F1040B234689
:1004C0000F2709F1040AABF1040EC9E00125A5408C
:1004D0002A40AA427DD1674ED1F804C0ACEB060891
:1004E000B44532D014DCBCF1030F3AD009DCBCF1C6
:1004F000000F2AD0BCF1010F1CD0BCF1020F31D18A
:100500001DE0BCF1110F17D0BCF1120F2AD119E078
:10051000B8F5881F19D006DCB8F5803F15D0B8F5BE
:10052000801F1FD111E0B8F5001F0ED0B8F5041FD1
:1005300018D10AE0CB6815E0CB681B1D12E0CB6830
:1005400008330FE0CB680C330CE08B682BB1012B28
:100550004FF0080303D0456104E0042302E0056185
:1005600000E00023FF2A01D8064601E000F104065E
:100570004FEA840501D9A5F12005D6F8008007FAD5
:1005800005FC28EA0C0803FA05F548EA0508C6F850
:1005900000804D68ED0062D5374DAE6946F001062A
:1005A000AE61AD6924F0030605F001050095334DF9
:1005B00006EB050CDCF80850A607360F07FA06F81C
:1005C00025EA0805DFF8B880404503D14FF0000860
:1005D00017E044E0DFF8AC80404502D14FF001085D
:1005E0000FE0DFF8A480404502D14FF0020808E098
:1005F000DFF89880404502D14FF0030801E04FF04A
:10060000040808FA06F848EA0508CCF808804D689E
:10061000D9F80060ED024D4601D5164300E096433F
:100620002E604D68DAF80060AD02554601D51643DC
:1006300000E096432E604D68DBF80060AD035D4638
:1006400001D5164300E096432E604D68DEF8006049
:10065000ED03754601D5164300E096432E60641CF9
:100660000D682A46E5407FF431AFBDE8F88F000001
:100670000804014000001110001002400000014079
:1006800000080140000C014000100140001401402E
:100690000AB1016170470904FBE700000148806866
:1006A0007047000000000020024881680278114471
:1006B0008160704700000020074810B5016841F0D4
:1006C00010010160032000F075F80F2000F006F81B
:1006D00000F024F8002010BD0020024070B50D4D40
:1006E00004464FF47A712878B1FBF0F00A490968A2
:1006F000B1FBF0F000F045FC48B9102C07D2002205
:100700002146501E00F036F800206C6070BD0120BC
:1007100070BD0000000000200C0000200C4808B54F
:10072000816941F001018161816901F0010100915C
:10073000C16941F08051C161C06900F080500090F2
:100740000448416821F0E06141F00071416008BD5A
:100750000010024000000140002809DB00F01F02E9
:10076000012191404009800000F1E020C0F8001113
:1007700070470000F0B40E4B1B680C46C3F3022315
:10078000C3F10705042D00D90425191D072901D23D
:10079000002300E0DB1E012606FA05F1491E214078
:1007A00099409E40761E16403143F0BC01F0AFB92F
:1007B0000CED00E0064900F0070208684FF6FF0361
:1007C000184040EA0220034A1043086070470000C6
:1007D0000CED00E00000FA052DE9F0470F4605009A
:1007E00061D0434E306800F00700B84209D230684B
:1007F00020F0070038433060306800F00700B8424E
:1008000051D128683B4C810712D5400703D5606859
:1008100040F4E06060602878000703D5606840F429
:10082000605060606068A96820F0F0000843606074
:100830002878C00728D06868012810D021680228CD
:1008400010D0890700292EDA616821F003010143E5
:100850006160FFF723FF804641F288390DE021688F
:100860008903EFE78901EDE7FFF718FFA0EB080127
:10087000494502D90320BDE8F0876068696800F047
:100880000C00B0EB810FEFD1306800F00700B842E8
:100890000BD9306820F0070038433060306800F032
:1008A0000700B84201D00120E5E72878400705D5C8
:1008B0006068E96820F4E060084360602878000719
:1008C00006D56068296920F4605040EAC100606084
:1008D00000F038F86168084AC1F30311515CC84060
:1008E0000649086006480068FFF7F8FE0020C2E7E6
:1008F0000020024000100240EA1B00080C0000200B
:10090000040000200448054900684968044AC1F30E
:100910000221515CC84070470C00002000100240CA
:10092000FA1B00080448054900684968044AC1F3F5
:10093000C221515CC84070470C00002000100240EA
:10094000FA1B00080E4A51680E4801F00C03042BF4
:1009500011D0082B0FD10C48C1F38343C903C05CED
:100960000AD55168084AC1F34041921E515C054ABC
:100970005043B0FBF1F07047044948437047000012
:100980000010024000127A00DA1B000800093D0046
:100990002DE9F84F040070D02078C04DC00749D031
:1009A0006868C0F38100012807D06868C0F381003F
:1009B000022809D16868C00306D52868800339D5A4
:1009C00060680028E7D035E06068B0F5803F0BD064
:1009D00010B1B0F5A02F11D0286820F48030286025
:1009E000286820F4802002E0286840F480302860E5
:1009F000606890B1FFF752FE06460AE0286840F4AE
:100A000080202860F0E700BFFFF748FE801B6428C5
:100A100073D828688003F7D50CE0FFF73FFE064641
:100A200005E000BFFFF73AFE801B6428F0D8286875
:100A30008003F7D420789A4E80074FF001094FF0D9
:100A4000000839D5686810F00C0F07D06868C0F34B
:100A50008100022809D16868C00306D4286880078D
:100A600014D52069012808D110E02069B0B1C6F87A
:100A70000090FFF713FE074605E00AE1FFF70EFEC0
:100A8000C01B0228C4D828688007F7D52868616988
:100A900020F0F80040EAC10028600DE0C6F80080B0
:100AA000FFF7FCFD074604E0FFF7F8FDC01B022836
:100AB00023D828688007F7D4207800072CD57948F8
:100AC000A169D9B1C0F80090FFF7E8FD074604E03E
:100AD000FFF7E4FDC01B02280FD8686A8007F7D52E
:100AE00071484FF4FA510068B0FBF1F0009000BF7C
:100AF0000098411E0091FAD20EE080E0C0F800801C
:100B0000FFF7CCFD074604E0FFF7C8FDC01B022835
:100B100075D8686A8007F7D42078400760D5E869FF
:100B20000027C00008D4E86940F08050E861E86917
:100B3000012700F0805000905C480168C90513D47B
:100B40000168834641F480710160FFF7A7FD82468A
:100B500006E000BFFFF7A2FDA0EB0A0064284ED814
:100B6000DBF80000C005F5D5E06801280AD008B11F
:100B7000052813D0286A20F001002862286A20F096
:100B8000040002E0286A40F001002862E06841F2B7
:100B9000883B98B1FFF782FD82460BE0286A40F05F
:100BA00004002862EEE700BFFFF778FDA0EB0A0122
:100BB00059455AD8286A8007F6D50CE0FFF76EFD34
:100BC000824605E0FFF76AFDA0EB0A0159454CD8C3
:100BD000286A8007F6D41FB1E86920F08050E861E8
:100BE000E06988B36968C1F38101022944D0022811
:100BF000C6F8608004D0FFF751FD044638E034E0C9
:100C0000FFF74CFD074604E0FFF748FDC01B022834
:100C10002BD828688001F7D4206AB0F5803F05D131
:100C20006868A16820F4003008436860D4E90801CE
:100C30000843696821F4741108436860C6F860903D
:100C4000FFF72CFD044606E025E000BFFFF726FD78
:100C5000001B022809D828688001F7D51BE000BFD7
:100C6000FFF71CFD001B022802D90320BDE8F88F06
:100C700028688001F4D40EE00128F7D06868226A61
:100C800000F48031914204D1616A00F4701088420E
:100C900001D00120EAE70020E8E700000010024050
:100CA00000004242800442420C00002000700040DC
:100CB00070B5040009D0606A002540B12561656106
:100CC000A56294F8510040B10CE0012070BD60684D
:100CD000B0F5827FF4D0E561F2E784F85050204609
:100CE00000F040F8022084F851002068016821F0EB
:100CF00040010160A088218900F4827001F4044160
:100D00000843A18901F400610843217C01F002013C
:100D10000843217D01F001010843218B01F400719A
:100D20000843217F01F03801084394F8201001F0B6
:100D300080010843218D01F40051084321680860B7
:100D4000A069042101EA1040216848602068C16957
:100D500021F40061C1616565012084F85100002023
:100D600070BD000030B585B0002400940194029459
:100D70000394254D0368254802210322AB421AD172
:100D8000836943F480538361836903F4805304933C
:100D9000836943F00403836180691D4D00F0040002
:100DA0000490A020CDE90001039269462846FFF790
:100DB0007FFB40201EE0174DAB4222D1C36943F4B4
:100DC0008043C361C36903F480430493836943F0A0
:100DD000080383618069104D00F0080004904FF40F
:100DE0002040CDE90001039269462846FFF760FBE9
:100DF0004FF48040CDE90004694628460294FFF78D
:100E000057FB05B030BD000000300140001002402B
:100E10000008014000380040000C01402DE9F84F67
:100E2000984616468A460446FFF738FC814694F8F1
:100E3000510001281ED1BAF1000F73D0002E71D0DD
:100E400094F85000012815D0012784F85070032031
:100E500084F8510000256565C4F830A0A686E686B2
:100E6000A563A587E58765642564A068B0F5004F94
:100E700003D00CE00220BDE8F88F2068016821F063
:100E8000400101602068016841F4804101602068F0
:100E90000168490603D4016841F040010160E0683F
:100EA000B0F5006F606803D048B3012E27D047E04B
:100EB00008B1012E1FD1206B21680088C86006E0B0
:100EC00020688168890709D5216B0988C160206B7A
:100ED000801C2063E08E401EE0860CE0FFF7DEFB06
:100EE000A0EB0901414503D3B8F1FF3F03D035E042
:100EF000B8F1000F32D0E08E0028E1D123E0206B62
:100F000021680078087306E02068816889070AD59F
:100F1000216B09780173206B401C2063E08E401E1A
:100F2000E0860DE02BE0FFF7B9FBA0EB090141459E
:100F300003D3B8F1FF3F03D010E0B8F1000F0DD09C
:100F4000E08E0028E0D14A464146204600F0EFFA04
:100F500008B120206065A06830B109E084F85170C4
:100F600084F85050032086E72068C16880680090AC
:100F700084F8517004F8505F60680028F3D00120B5
:100F800079E710B5401EB0F1807F01D3012010BD7C
:100F90004FF0E02460610F21601700F0B8FD0020E1
:100FA000A06107202061002010BD7047704700003D
:100FB000F8B5016804460868CA684B6910F00F0F5D
:100FC0004FF0000559D003F0010602F49077374343
:100FD00065D0C10705D0D10503D5616C41F0010191
:100FE0006164410705D5D90703D0616C41F0020166
:100FF0006164810705D5D90703D0616C41F0040114
:101000006164010707D502F02001314303D0616C10
:1010100041F008016164616C00293AD0800604D572
:10102000900602D5204600F0ADFC20684069616C56
:10103000C0F38010090700D460B3204600F07BFCA9
:1010400020684069400621D52068143050E8001F10
:1010500021F0400140E80012002AF5D1E06BA8B170
:101060006D494163E06BFFF739F9002811D0E06B5F
:10107000416B01B0BDE8F040084783060FD59306E9
:101080000DD52046BDE8F84000F07CBC2046FFF7B7
:101090008DFFF8BD2046FFF789FF6564F8BD266B1C
:1010A0002023012E7CD1C6067AD5D60678D50868CD
:1010B0004868009048694FF00206400640D5E16B51
:1010C000086840680004000CE8D0A28D8242E5D98F
:1010D000E085886920282DD020680C3050E8001F5A
:1010E00021F4807140E80012002AF5D12068143004
:1010F00050E8001F21F0010140E80012002AF5D15C
:101100002068143050E8001F21F0400140E8001230
:10111000002AF5D184F84230256320680C3050E86D
:10112000001F21F0100140E80012002AF5D1E06B09
:10113000FFF7B1F86663A08DE18D401A81B22AE015
:10114000A08DE18D401A81B2E08D0028A6D0002943
:10115000A4D022680C3252E8000F20F4907042E8CC
:101160000007002FF5D12068143050E8002F22F03E
:10117000010240E80027002FF5D184F842302563B2
:1011800020680C3050E8002F22F0100240E80023C5
:10119000002BF5D166632046FFF707FFF8BDFFE798
:1011A00005062BD5150629D594F841002128F5D13F
:1011B000A068B0F5805F01D12069B0B1206A411C00
:1011C0002162216800784860E08C401E0004000C19
:1011D000E084E3D12068C16821F08001C16020680B
:1011E000C16841F04001C160D8E7206A0088C0F3BF
:1011F00008004860206A801C2062E5E74006CDD5E3
:101200005006CBD5CA68204622F04002CA6084F856
:10121000413000F076F8C1E72719000870B50400E6
:1012200004D094F84100002510B106E0012070BD03
:1012300084F84050204600F023F8242084F8410030
:101240002068C16821F40051C160204600F0FCFB19
:101250002068016921F4904101612068416921F011
:101260002A0141612068C16841F40051C160656490
:10127000202084F8410084F842006563002070BD9E
:1012800030B585B000240094019402940394006862
:10129000184988422CD11848816941F48041816104
:1012A000816901F480410491816941F00401816107
:1012B0008069124D00F0040004904FF4007000901B
:1012C000022001900320039069462846FFF7F0F8BA
:1012D0002815CDE90004694628460294FFF7E8F88E
:1012E000002211462520FFF745FA2520FFF734FAA2
:1012F00005B030BD00380140001002400008014038
:1013000070477047FEE700002DE9F04186B00024E9
:101310001F480094019402940394816941F02001D4
:101320008161816901F020010491816941F004012A
:101330008161816901F004010491816941F0080132
:1013400081618069134F00F00800049000221E2183
:101350003846FFF79DF9DFF8408000220121404622
:10136000FFF796F91E2001250326CDE90005CDE9FA
:10137000024669463846FFF79BF803960095CDE98B
:10138000015469464046FFF793F806B0BDE8F08186
:101390000010024000080140000C014070B52648D2
:1013A00086B0244901604FF482710024C0E9011421
:1013B000C4604FF400710461C0E905410821C0E92F
:1013C00007140A214462C0E90A41FFF771FC08B121
:1013D000FEF75FFF194D0294A86940F48050A861A0
:1013E000A86900F480500490A86940F00400A86146
:1013F000A869134E00F004000490A0200090022081
:1014000001900320039069463046FFF751F84020D1
:10141000CDE90004694630460294FFF749F8A8690F
:1014200020F48050A861E0213046FEF7B5FF06B0F9
:1014300070BD00000030014010000020001002408C
:101440000008014070B5274886B0254901604FF477
:1014500082710024C0E90114C4604FF4007104617A
:10146000C0E90541C46104620A214462C0E90A413D
:10147000FFF71EFC08B1FEF70CFF1B4D0294E86954
:1014800040F48040E861E86900F480400490A86975
:1014900040F00800A861A869144E00F0080004900C
:1014A0004FF42040009002200190032003906946F1
:1014B0003046FEF7FDFF4FF48040CDE90004694659
:1014C00030460294FEF7F4FFE86920F48040E861BA
:1014D0004FF460413046FEF75FFF06B070BD00007C
:1014E000003800406800002000100240000C01405D
:1014F0000C4810B50A4901604FF461414160002178
:1015000081600C22C160C0E904128161C161FFF7F2
:1015100085FE002803D0BDE81040FEF7BABE10BD1E
:1015200000380140C0000020FEE7FEE77047F8B534
:1015300015460E460B46009204460122022100F099
:1015400011F840B93346002280212046009500F072
:1015500009F8002804D0606D40F020006065032089
:10156000F8BD00002DE9F8431E4691468846044622
:10157000089DFFF793F8401B351AFFF78FF80746D1
:1015800025480068C0F3CB30684338E0701C37D082
:10159000FFF784F8C01BA84203D215B1009860B3CE
:1015A0002CE02068416821F0E00141606068B0F5FE
:1015B000827F0BD1A068B0F5004F02D0B0F5806FEC
:1015C00004D12068016821F040010160A06AB0F5F3
:1015D000005F09D12068016821F400510160206892
:1015E000016841F400510160012084F8510000209D
:1015F00084F850000320BDE8F8830025401E0090C9
:101600002068816838EA010004D000214945BDD135
:101610000020F0E70121F9E70C0000200122102151
:101620000148FFF735B800000008014038B51446FE
:10163000802823D2A02921D2CBB2C2B2C9B2C0B273
:1016400000F0D4F8200A8DF800008DF801400C4C11
:10165000012204212046FFF71BF800220821204622
:10166000FFF716F84FF0FF33022269460548FFF7EF
:10167000D5FB012208212046FFF70AF838BD0000FB
:1016800000080140100000202DE9FF4F81B01546F1
:101690008A46834650E008064ED50BF10C008028A0
:1016A00009D30AF10C0000F0FF0A0AF10C004FF018
:1016B000000BA02843D2234A002000BF00EB800388
:1016C00003EBC00312F81340A14230D102EB4303F5
:1016D0006C785B789C422AD100EB800101EBC00062
:1016E00002EB4000801C00264FF400490090009857
:1016F000002400EB46000AEB0608008847BA00BF4A
:1017000029FA04F0384205D041460BEB0400049A54
:10171000FFF78CFF641CE4B20C2CF1D3761CF6B2FC
:101720000C2EE4D30BF10E0000F0FF0B03E0401C85
:10173000C0B20228C2D3AD1C29780029ABD105B0B4
:10174000BDE8F08F691B00082DE9F041254C01220E
:1017500008212046FEF79CFF012204212046FEF7C7
:1017600097FF002202212046FEF792FF3220FEF76B
:1017700001FE012202212046FEF78AFF9620FEF795
:10178000F9FD194C04F13B071DE000BF14F8010BF3
:101790004FF0000814F8016B802E03D114F8018B70
:1017A00014F8016B00F050F8002505E014F8010B67
:1017B00000F068F86D1CEDB2B542F7D3B8F1000047
:1017C00001D0FEF7D7FDBC42E0D3362000F03CF854
:1017D000C82000F057F8292000F036F8BDE8F041A5
:1017E000FFF71CBF000801409D1B00082DE9F041D8
:1017F00007461C4615460E462A2000F025F8002014
:1018000000F040F8BF1CF8B200F03CF8002000F0F7
:1018100039F8AD1CE8B200F035F82B2000F014F8D0
:10182000002000F02FF8F61CF0B200F02BF800209A
:1018300000F028F8E41CE0B200F024F8BDE8F04124
:101840002C2000F001B8000031B50C4C002204211E
:101850002046FEF71DFF002208212046FEF718FF54
:101860004FF0FF33012269460548FFF7D7FA0122FE
:1018700008212046FEF70CFF38BD0000000801409B
:101880001000002031B50C4C012204212046FEF747
:10189000FFFE002208212046FEF7FAFE4FF0FF333C
:1018A000012269460548FFF7B9FA012208212046BE
:1018B000FEF7EEFE38BD00000008014010000020D9
:1018C0007047FEF7F1BE30B58FB028216846FEF7AD
:1018D0007BFC14210AA8FEF777FC01210804CDE95E
:1018E00000100024029402250491CDE907504FF422
:1018F000E01009906846FFF74BF808B172B6FEE7B2
:101900000F20CDE90A054FF48060CDE90C4002219B
:101910000AA80E94FEF760FF002801D072B6FEE719
:101920000FB030BD704710B5406A0021C185C18439
:10193000FFF73CFB10BD01680C3151E8002F22F489
:10194000907241E80023002BF5D10168143151E871
:10195000002F22F0010241E80023002BF5D1016B9A
:10196000012909D101680C3151E8002F22F0100241
:1019700041E80023002BF5D1202180F842100021FE
:101980000163704708B590F84210222901D0022067
:1019900008BD82684FF480539A4201D1016921B198
:1019A000816A9A421BD04AB10AE00268816A526891
:1019B000C2F308020A80816A891C08E0026972B1D8
:1019C0000268526802F07F020A70816A491C8162D3
:1019D000C18D491E0904090CC18503D01BE00268B2
:1019E0005268F1E70168CA6822F02002CA60016803
:1019F000CA6822F48072CA6001684A6922F0010252
:101A00004A61202180F8421000214163026B012AC3
:101A100003D0FFF775FC002008BD016301680C319D
:101A200051E8002F22F0100241E80023002BF5D1ED
:101A300001680A68D20602D50A6849680091818D5A
:101A4000FFF7B3FAE7E7000070B5044600680169E4
:101A5000E26821F44051114301612169A068084303
:101A6000616908432168CA6841F20C639A430243E2
:101A7000CA6020684169A26921F440711143416143
:101A80001E492068884202D1FEF74CFF01E0FEF7B4
:101A900039FF00EBC00101EB001260686421800097
:101AA000B2FBF0F3B3FBF1F36FF018067343B2FB34
:101AB000F0F5B2FBF0F605EB8305322303EB0515D9
:101AC000B5FBF1F5B6FBF1F605F0F00505EB0615F3
:101AD000B2FBF0F6B2FBF0F0B0FBF1F06FF01802E1
:101AE000504306EB800003EB0010B0FBF1F02168DF
:101AF00000F00F002844886070BD000000380140ED
:101B00000148FFF755BA0000C0000020FEE70907B2
:101B1000090E002804DB00F1E02080F80014704773
:101B200000F00F0000F1E02080F8141D7047000065
:101B3000FEF7C2FDFFF7C7FEFFF7C5FEFFF7E4FBA8
:101B4000FFF72CFCFFF77EFCFFF7D2FCFFF7FCFD54
:101B50000A210023024A0846FFF796FDFEE700002F
:101B6000641B0008C4E3BAC300C4E328002800E4EF
:101B700007240496028500A402A404A40494048407
:101B800000C400BAC30400E40304021F01920092DF
:101B900000F20789008A0084008A00D10001809643
:101BA0001180FFB103012C2DB203012C2DB30601CE
:101BB0002C2D012C2DB40107C003A20284C101C544
:101BC000C2020A00C3028A2AC4028AEEC5010E3686
:101BD00001C83A01052980FF010202030405060736
:101BE00008090A0B0C0D0E0F101000000000000079
:101BF00000000102030406070809000000000102BA
:101C000003040000241C0008000000201000000055
:101C100028010008341C00081000002058070000AC
:101C20004401000801000000100000000000000056
:041C300000127A0024
:04000005080000ED02
:00000001FF
